:100000000C9404020C943C0F0C94460F0C94500F6B
:100010000C945A0F0C94640F0C94890F0C948B1A47
:100020000C94930F0C9423020C9423020C942B2316
:100030000C94CF240C94BB0F0C94D10F0C946B1424
:100040000C94B90E0C949D220C94AE110C942302C6
:100050000C942A120C94CA0E0C9423020C942302C2
:100060000C94C60F0C947D130C945C130C946713C2
:100070000C9472130C9490130C943F130C94230261
:100080000C9451130C94E01D0C9423027C34B63470
:10009000BA3415353A353E354235573567359535DD
:1000A0009935A435AC35AF35B235B535B835BB3536
:1000B000BE35C135E7350C360F36223625362836A3
:1000C0002C363036A436DE3632374E3755378F373A
:1000D0009237953798379B37AD37B037E837F037D9
:1000E00001380438103813386B342E393C391D3A36
:1000F000053BEA3B3A3C3E3C413C683C7234A83C00
:100100006E616E00696E660000002110422063304F
:100110008440A550C660E770088129914AA16BB15F
:100120008CC1ADD1CEE1EFF1311210027332522207
:10013000B5529442F772D662399318837BB35AA3AF
:10014000BDD39CC3FFF3DEE36224433420040114D7
:10015000E664C774A44485546AA54BB528850995FF
:10016000EEE5CFF5ACC58DD55336722611163006A7
:10017000D776F6669556B4465BB77AA7199738874F
:10018000DFF7FEE79DD7BCC7C448E5588668A77867
:100190004008611802282338CCC9EDD98EE9AFF99F
:1001A000488969990AA92BB9F55AD44AB77A966A47
:1001B000711A500A333A122AFDDBDCCBBFFB9EEBEF
:1001C000799B588B3BBB1AABA66C877CE44CC55C17
:1001D000222C033C600C411CAEED8FFDECCDCDDD3F
:1001E0002AAD0BBD688D499D977EB66ED55EF44EE7
:1001F000133E322E511E700E9FFFBEEFDDDFFCCF8F
:100200001BBF3AAF599F788F8891A981CAB1EBA1E2
:100210000CD12DC14EF16FE18010A100C230E3205E
:100220000450254046706760B9839893FBA3DAB306
:100230003DC31CD37FE35EF3B1029012F322D232AE
:100240003542145277625672EAB5CBA5A8958985D6
:100250006EF54FE52CD50DC5E234C324A0148104FE
:100260006674476424540544DBA7FAB79987B897A6
:100270005FE77EF71DC73CD7D326F2369106B0164E
:1002800057667676154634564CD96DC90EF92FE966
:10029000C899E9898AB9ABA944586548067827689E
:1002A000C018E1088238A3287DCB5CDB3FEB1EFB46
:1002B000F98BD89BBBAB9ABB754A545A376A167AEE
:1002C000F10AD01AB32A923A2EFD0FED6CDD4DCD16
:1002D000AABD8BADE89DC98D267C076C645C454C3E
:1002E000A23C832CE01CC10C1FEF3EFF5DCF7CDFE6
:1002F0009BAFBABFD98FF89F176E367E554E745E8E
:10030000932EB23ED10EF01E00081C1814100040AF
:100310007A10F35A00A0724E18090010A5D4E80014
:1003200000E87648170000E40B54020000CA9A3B2C
:10033000000000E1F50500008096980000004042B2
:100340000F000000A0860100000010270000000040
:10035000E803000000006400000000000A00000044
:1003600000000100000000002C76D888DC674F08F0
:1003700023DFC1DFAE59E1B1B796E5E3E453C63AF6
:10038000E651997696E8E6C28426EB898C9B62ED6D
:10039000407C6FFCEFBC9C9F40F2BAA56FA5F49027
:1003A000055A2AF75C936B6CF9676DC11BFCE0E49E
:1003B0000D47FEF520E6B500D0ED902E03009435F4
:1003C00077050080841E080000204E0A000000C847
:1003D0000C333333330F986E12831141EF8D211498
:1003E000893BE65516CFFEE6DB18D1844B381BF768
:1003F0007C1D901DA4BBE424203284725E22810007
:10040000C9F124ECA1E53D2711241FBECFEFD0E1B7
:10041000DEBFCDBF11E0A0E0B1E0E2ECF2E900E028
:100420000BBF02C007900D92AA35B107D9F71BE0A8
:10043000AAE5B1E001C01D92A532B107E1F70E9423
:10044000E73C0C9460490C9400008FB7F89499270E
:1004500008958FBF089580918C01682F7727409170
:10046000380120E030E0E1E0F0E0CB01022E02C0F4
:10047000959587950A94E2F780FF1CC0842F9927F1
:10048000022E02C0959587950A94E2F780FF0AC074
:10049000CF01022E02C0880F991F0A94E2F78095BF
:1004A000482308C0CF01022E02C0880F991F0A946A
:1004B000E2F7482B2F5F3F4F28303105B1F64093CC
:1004C000380110928C010895282F9FB7F894E82FD7
:1004D000FF27E152FE4F80818F3F81F4E091060BB0
:1004E000E21771F40BC02093920A04C0FF27E15277
:1004F000FE4F20832093060B20E007C025E005C0B7
:100500008091920A8F3F91F7EECF892F99278FBF65
:10051000822F992708958BE00E94640299270895FD
:100520008CE00E94640281E08093370108958CE2A0
:100530000E946402992708958FE10E94640299271E
:10054000089580E20E946402992708952FB7F894D5
:10055000332780913A0280933E0182E08093930199
:100560002FBF80913E01882329F4B89AC09881E278
:100570000E946402089587E20E9464029927089508
:1005800089E20E946402992708958BE20E94640226
:100590009927089588E20E946402992708958DE2C0
:1005A0000E946402992708958AE20E9464029927B2
:1005B00008951F931FB7F8948091000B882341F48E
:1005C00082E30E946402882319F481E08093000B87
:1005D000812F99278FBF1F910895382FFA01422F3D
:1005E0002B3318F082E090E008956683872F9927D7
:1005F0008583338721878091A9019091AA01892B56
:1006000019F085E090E008952FB7F894332785E03E
:100610008093AC011092AD01F093A801E093A70183
:1006200082E090E09093AA018093A9011092AF011B
:100630001092AE01445F4093AB012FBF8FB7F89487
:10064000282F33278091B5058A3011F42FBF19C0A8
:100650002FBF9FB7F89480917303882311F020E097
:1006600006C081E0809373031092740321E0892F08
:1006700099278FBF222329F00E94D90280E090E0C1
:1006800008951092AA011092A90181E090E00895C6
:100690001F93CF93DF93182FE82FFF27EE0FFF1F35
:1006A000E35CF54F1182108210925801A0913D0A2F
:1006B000B0913E0A109721F08091530380FF0CC047
:1006C00081E08093580103C089E30E9464021123F2
:1006D000B9F410927B0114C0FD01359624813327B3
:1006E000ED016D817727762F662781819927682B09
:1006F000792BAD0186810E94ED02882341F3E4CF7E
:10070000DF91CF911F910895DA98D998D898809168
:100710000A048D7F80930A040895E82F8FB7F89418
:10072000282F332790E0FF27E652FA4F8081861763
:1007300009F491E02FBF892F99270895682F81E050
:100740000E948D0399270895682F84E00E948D03ED
:1007500099270895282F9FB7F894662349F0E82F2A
:10076000FF27E652FA4F8081882311F021E006C06E
:10077000E22FFF27E652FA4F608320E0892F992766
:100780008FBF822F992708958FB7F89460918C03BB
:1007900070918D032CB53DB506B602FE04C06F5FA7
:1007A0007F4F2CB53DB599278FBF88279927CB015F
:1007B0007727662744275527622B732B842B952B8D
:1007C0000895EF92FF920F931F930E94C4037B0141
:1007D0008C01209161033091620340916303509139
:1007E00064038091570390915803A0915903B091ED
:1007F0005A03820F931FA41FB51FE216F3060407C6
:10080000150730F082179307A407B50758F005C005
:1008100082179307A407B507E0F5E816F9060A075B
:100820001B07B8F59C01AD012E193F09400B510B78
:10083000213060E8360760E0460760E0560768F15F
:1008400080E090E8A0E0B0E0E80EF91E0A1F1B1F50
:10085000E0926103F09262030093630310936403D8
:1008600080E090E8AFEFBFEFE80EF91E0A1F1B1FF4
:100870002050304840405040209357033093580355
:100880004093590350935A0320E030E840E050E091
:1008900014C020E030E040E050E08093610390938A
:1008A0006203A0936303B093640310925703109202
:1008B00058031092590310925A03A901B7012CB59D
:1008C0003DB5C9018E199F0903968417950720F03D
:1008D000B9016D5F7F4F02C0640F751F611571050F
:1008E00011F461E070E0615070407BBD6ABD80E151
:1008F00086BF87B7806187BF1F910F91FF90EF90F0
:1009000008950F931F930FB7F89411276093610315
:10091000709362038093630390936403209357035F
:10092000309358034093590350935A030E94E103B4
:100930000FBF1F910F910895EF92FF920F931F9396
:100940007B018C010E94C403A80197010E948104CD
:100950001F910F91FF90EF9008958091B5058A3017
:1009600021F480919602843021F081E08093A401EB
:10097000089584E30E9464021092A40108952FB7A1
:10098000F89433278CB95E9A2FBF0895FC01611546
:10099000710519F481E090E0089580916B039091C6
:1009A0006C03892B19F085E090E008957093120A8A
:1009B0006093110AF0936C03E0936B031092EA02C8
:1009C0001092E90281E08093EB025E9A569A808150
:1009D00021E030E03093EA022093E9020E94BF0454
:1009E00080E090E008958FB7F89499272091B501A1
:1009F0002E7F2093B5012EE720931E028FBF61E06A
:100A000070E08EE192E00E94C60499270895AC013F
:100A1000E2E9F3E080E090E09C01858180FF05C081
:100A2000808191818417950741F0C90101963B9619
:100A30008A30910589F72FEF30E0C90108950E94AF
:100A400007058F3F91F099272BE030E0829FF0015E
:100A5000839FF00D929FF00D1124EE56FC4F85817F
:100A600081FF03C08781908508958FEF9FEF0895E0
:100A70000E9407058F3F19F481E090E00895282F28
:100A800033278BE090E0289FF001299FF00D389FDD
:100A9000F00D1124EE56FC4F85818860858380E03F
:100AA00090E008952F923F924F925F926F927F92C3
:100AB0008F929F92AF92BF92CF92DF92EF92FF926E
:100AC0000F931F93CF93DF93CDB7DEB729970FB660
:100AD000F894DEBF0FBECDBF6FB76983F894209046
:100AE0004B0330904C0340904D0350904E036624CE
:100AF00077248824EEE4AE2E73E8B72ECC24DD24D0
:100B0000EE24FF2400E010E0222D332D442D552D3E
:100B1000662D772D882D90E00E94F93F2A833B8334
:100B20004C835D836E837F8388879987822E932E83
:100B3000A42EB52E2401350100E20E94F740A22E1A
:100B4000B32EC42ED52EA301920156954795379505
:100B500027952A0D3B1D4C1D5D1D57FF05C05F7776
:100B60002F5F3F4F4F4F5F4F20934B0330934C030A
:100B700040934D0350934E03E9818E2F99278FBFE9
:100B8000CA01B90129960FB6F894DEBF0FBECDBFDA
:100B9000DF91CF911F910F91FF90EF90DF90CF9059
:100BA000BF90AF909F908F907F906F905F904F908D
:100BB0003F902F900895EF920F931F93AE2D99E0E1
:100BC000899FF0011124EE5FFB4F408351836283C4
:100BD00073830483158326833783A17080858E7F7A
:100BE0008A2B8260808782E00E9464021F910F91AD
:100BF000EF9008957FB7F89462B72091BE013091CD
:100C0000BF014091C0015091C10106B601FE0FC065
:100C100081B792B7280F311D411D511D2F5F3F4FE6
:100C20004F4F5F4F290F311D411D511D04C0260F2D
:100C3000311D411D511D872F99278FBFCA01B90151
:100C40000895AF92BF92CF92DF92EF92FF920F93EF
:100C50001F93F82E5A016B010E94FA05AB01BC01EB
:100C6000F1E0EF2E960185018F2D0E94DB051F918B
:100C70000F91FF90EF90DF90CF90BF90AF900895CD
:100C80009C016E5F6B3318F080E090E008950C9645
:100C900011F0C9010E960895FC0182819927582F01
:100CA000442781819927482B592BCA01892F9927DD
:100CB00086958695837090708230910559F08330C7
:100CC000910559F0892B19F420E030E008C02CE997
:100CD0003FEF05C022E030E002C028E030E0CA016A
:100CE00084E0989F812D992711248230910559F035
:100CF0008330910559F0892B19F480E090E008C009
:100D00008CE99FEF05C082E090E002C088E090E0AF
:100D1000280F391F2A5F3F4FCF01820F931F08957D
:100D2000CF93DF93FC01DC011196ED01298133277C
:100D3000322F2227818199278062282B392B21830A
:100D4000232F3327298380E090E0DF91CF9108950E
:100D5000FC0180899927982F882721893327822BA6
:100D6000932B0895FC0127813085C901A3E0880FEA
:100D7000991FAA95E1F7820F931F860F971F6AE0CC
:100D800070E00E945347708767830895FC01618576
:100D90009285662329F48AE0989FB001112409C046
:100DA00077278AE0989FC00111240E946747118627
:100DB0001286CF010E94B206089580919B01E82F10
:100DC000FF27EE0FFF1FEA53F64F0190F081E02D51
:100DD00020919D01222351F08F5F80939B018D30E4
:100DE00011F410929B01215020939D01CF01089591
:100DF0008FB7F89499272BB334E023272BBB8FBFF1
:100E00000895FC0180899927982F88272189332705
:100E1000822B932B0895AF92BF92DF92EF92FF92B5
:100E20000F931F93CF93DF935C01D090C201F0909A
:100E30007C03EE2425C00F2D03701127C5010E94ED
:100E40000107F801EE0FFF1FEE0FFF1FE00FF11F6C
:100E5000E15EFD4F208131818217930779F4D5013E
:100E60001C96ED019E818281891741F499818481CC
:100E7000891721F49F818381891721F0E394F394EA
:100E8000ED14C9F68E2D9927DF91CF911F910F9107
:100E9000FF90EF90DF90BF90AF900895AC0120914C
:100EA00079032C3018F081E090E008958091500390
:100EB000682F620F712D711DFB016C30710508F0F8
:100EC0003C97EE0FFF1FE754FA4F518340832F5F8B
:100ED0002093790380E090E00895AC01209178039D
:100EE0002C3018F081E090E008958091A00A682FDE
:100EF000620F712D711DFB016C30710508F03C977C
:100F0000EE0FFF1FE85FF44F518340832F5F209364
:100F1000780380E090E008950F931F93CF93DF93C1
:100F2000EC01892BE9F02091E7093091E8098FEF76
:100F30002F3F3807A9F08091C501813019F419823B
:100F400018820BC00091E9091091EA09C9010E94B9
:100F50001F05080F191F1983088380E090E002C065
:100F600081E090E0DF91CF911F910F910895CF9391
:100F7000DF93CDB7DEB722970FB6F894DEBF0FBE72
:100F8000CDBF9091B8012091B90180913601682FB1
:100F90007727562F40912E0441FF03C04D7F409389
:100FA0002E04503F08F0F5C0503E08F0F2C0503D0E
:100FB00008F0EFC0503C08F0ECC0503B08F0E9C02E
:100FC000503A08F0E6C0503908F0E3C067FFC8C0E7
:100FD000892F9927982F88273327822B932B80934B
:100FE000FA09892F99278093F909CE0101960E9469
:100FF0008C0789819A818093FE09892F9927809394
:10100000FD098091E7099091E8092FEF8F3F920742
:1010100011F09A83898329813A812093020A832FD0
:1010200099278093010A982F88273327822B932BA7
:101030000E941F058093000A892F99278093FF093A
:101040008091700190917101109271011092700164
:101050008093040A892F99278093030A8091740151
:101060009091750110927501109274018093060A97
:10107000892F99278093050A8091720190917301BD
:1010800010927301109272018093080A892F992798
:101090008093070A809178019091790110927901EB
:1010A0001092780180930A0A892F99278093090A60
:1010B00080917601909177011092770110927601DC
:1010C00080930C0A892F992780930B0A80913B0209
:1010D00090913C0280930E0A892F992780930D0AE4
:1010E00080912A0190912B019A8389838093100A21
:1010F000892F992780930F0A8FB7F894282F3327C9
:10110000922F80918401882389F491E09093840147
:101110001092F3022FBF80918501882321F489E08A
:101120000E94640236C09093860133C08091F3021E
:10113000882311F42FBF2DC080915D038F3F71F480
:10114000E0912F01EE2351F01FC010922E0104C038
:10115000FF27E35AFC4F108210922F019FBF19C046
:101160005037B8F45036A8F4503598F4503488F419
:10117000503378F4503268F4503158F481E0809361
:1011800087018093310105C080912E018F3F01F7C7
:10119000DCCF22960FB6F894DEBF0FBECDBFDF9135
:1011A000CF9108959C01685F6B3318F080E090E068
:1011B00008950C9611F0C901449608958FB7F894DC
:1011C00099271092DA058FBF0895882311F06E9A3F
:1011D00008956E98089580E88093DA011092950240
:1011E00010929B0A1092910A109237020895109261
:1011F000900110928F01DE98DD98DE9A80E090E0F9
:101200000895AF92BF92CF92DF92EF92FF920F9329
:101210001F93F82E5A016B010E94FA05AB01BC0125
:10122000EE24960185018F2D0E94DB051F910F9101
:10123000FF90EF90DF90CF90BF90AF9008958823FC
:1012400011F06F9A08956F98089580E00E94E50864
:10125000BA9ABB98B99AB89A6C9A80E00E941F0912
:101260006B986A9881E00E94E508709A8DB18C7F36
:101270008DB908951F93182F81E00E94E5081FB9CA
:10128000779BFECF8FB199271F9108958F929F92E0
:10129000AF92BF92CF92DF92EF92FF920F931F9384
:1012A000CF93DF938FB7F8949927C090A80AD09076
:1012B000A90A80902D0590902E05C0918603D091AB
:1012C00087032091BA013091BB01BAE0AB2EB12C5B
:1012D000AC0EBD1E2A153B0508F459018FBF7401E1
:1012E000EC0EFD1E86010C0F1D1F14C0C114D1048D
:1012F00019F0F801808101C080E00E943A09811450
:10130000910411F0F701808321960894E11CF11CEF
:101310000F5F1F4FC5010197C817D90738F381E048
:101320000E941F099FB7F894C114D10431F0CC0E6C
:10133000DD1EF60180818FB901C01FB8D0938703ED
:10134000C0938603892F99278FBF80E090E0DF91BB
:10135000CF911F910F91FF90EF90DF90CF90BF90B2
:10136000AF909F908F9008952FB7F89433275093A4
:10137000BB014093BA019093A90A8093A80A709385
:101380002E0560932D0510928703109286032FBFC0
:10139000452B29F08FB10E9446099927089582E2D2
:1013A0000E94640280E090E008959BE0899FF00134
:1013B0001124EE56FC4F71836083128213821482D3
:1013C00085E085831682108617820895882349F068
:1013D000682F772784EC99E00E9467476B3F71057F
:1013E00010F06FEF7FEFCB010895CF92DF92FF9265
:1013F0000F931F93CF93DF93282F062F482F552746
:101400008BE090E0489FE001499FD00D589FD00DA0
:101410001124CE56DC4F8D8182FF02C08B7F8D83DD
:101420008A81302F381B0A838B818F5F8B83332314
:1014300079F08C81830F81508C833B3048F0688138
:101440007981822F0E94D5090A8381E08B836EC047
:101450008BE090E0489FF001499FF00D589FF00D00
:101460001124EE56FC4F83812481820F912D911D12
:1014700003971CF4333008F459C0C080D180C2E90E
:10148000D3E0888199818C159D0509F049C08D8133
:10149000282F332720FF44C06B81FC80F60E21FDEE
:1014A00016C07727882799272AEF30E040E050E0E0
:1014B0000E9428472F2D3327442755270E947A471B
:1014C000DA01C9012E830E94E60998878F838D81F6
:1014D00082608D830E8189E0089F800111246B81D9
:1014E0007727882799272AEF30E040E050E00E94D4
:1014F00028472F2D3327442755270E947A47C801B4
:10150000820F911D6AE070E00E946747CB016E83F5
:101510001B821C820E94E609BC01CE010E94B20619
:101520002B9684E0C030D80709F0ABCFDF91CF9184
:101530001F910F91FF90DF90CF90089580E090E091
:10154000E7E9F3E09C01808180FF08C0C9010196B2
:101550003B968A309105B1F72FEF30E0C90108952D
:10156000982FAFEF60E070E040E050E0E7E9F3E093
:101570008081282F332720FF0BC021FF09C023FDC6
:1015800007C0228133812617370710F0A42FB90135
:101590004F5F5F4F3B964A30510551F7892F99278E
:1015A0006817790718F48FEF90E008958A2F99272C
:1015B0000895AC013091DD018FEF4F3F580711F0D6
:1015C00020E012C0832F99270895E22FFF2783E0A0
:1015D000EE0FFF1F8A95E1F7E25CFD4F808191815C
:1015E0008417950719F02F5F231779F7822F992712
:1015F0000895CF93DF93EC010E94D90A282F8091A0
:10160000DD012817D1F0382F31503093DD0113C0A0
:10161000822F992743E0880F991F4A95E1F7DC0153
:10162000A25CBD4FFC01EA5BFD4F88E001900D928A
:101630008150E1F72F5F231758F38091E7099091CC
:10164000E8098C179D07A1F48FEF9FEF9093E809AD
:101650008093E7091092EA091092E9091092EB09C8
:101660001092EC0981E08093A30180E30E94640260
:10167000DF91CF910895FC018081448555274F70FB
:1016800050709A01220F331F240F351F821B8F5079
:10169000992708951F93CF93DF93162FC0E0D0E0D2
:1016A00068E30E944006FC0180818123811711F4C8
:1016B000C1E0D0E0CE01DF91CF911F910895AC0140
:1016C00020919D012D3018F081E090E008958091E7
:1016D0009C01E82FFF27EE0FFF1FEA53F64F5183BF
:1016E00040838F5F80939C018D3011F410929C0198
:1016F0002F5F20939D0180E090E00895CF93DF93CA
:10170000FC01EA5BFF4F1582DF011696ED011B829B
:101710001A82198280E88683DF91CF91089597B766
:101720009F7D97BF90E296BF882319F08EB58064A5
:1017300002C08EB58F7B8EBD87B7806287BF80E089
:1017400090E0089581E00E948F0B992708958FB74C
:10175000F894992720917400209381058FBF0895F4
:10176000EF92FF920F931F93E62EF22E9FB7F894FD
:10177000292F332790913501981721F02FBF81E051
:1017800090E061C02FBF8FB7F894282F3327609166
:101790008901613039F582E0809389012FBF8FB7CD
:1017A000F894992750934A034093490310933902C0
:1017B00000933802F092BD01E092220B1092130ABE
:1017C00060938A018FBF0E94A70B9FB7F894209166
:1017D000810521682F7A209381056E2D772760FD82
:1017E0000BC00FC0662321F42FBF84E090E02BC014
:1017F0002FBF85E090E027C020622093810584E020
:101800000BC081E08F1520F0FF2061F062FF07C060
:1018100020642093810583E0809389010BC081E0DF
:10182000F816C9F361FF06C085E080938901206145
:10183000209381058091810580937400892F9927D9
:101840008FBF80E090E01F910F91FF90EF9008957F
:101850000F931F9308EB11E022E04AE450E063E0AD
:1018600080E00E94B00B882319F08FE00E94640290
:101870001F910F9108950F931F9304E513E022E049
:101880004FE350E063E081E00E94B00B882319F041
:1018900088E10E9464021F910F9108950E94A70B96
:1018A000809181058E7F806980938105809374008B
:1018B0000895982F80918801833009F047C0809166
:1018C0003401891709F042C08091320120E030E0F4
:1018D0008F3F11F421E030E0232BF9F48F3F19F40E
:1018E0002FEF30E00EC0282F3327F901E356F54FD4
:1018F0008081809332018F3F11F4809333018FEF09
:10190000808320931B028FEF8093340181E08093CA
:1019100088018DE00E94640216C082E08093340149
:101920001092880180918901813069F40E94A70B8F
:10193000809181058A7680938105809374009098C8
:1019400091981092890180E090E0089581E090E004
:10195000089590E087FF02C01F9A01C01F98A89ABF
:10196000A8989F5F983011F0880FF4CF08951798CA
:101970001F9AA89A0F9B03C081E090E00895A89851
:1019800080E090E008952FB7F89499B79F7799BFBA
:1019900090E898BF9AB790689ABF882319F08AB7E1
:1019A000806402C08AB78F7B8ABF89B7806889BF8D
:1019B000822F99278FBF80E090E0089580E020E09B
:1019C000A89A0F998160273031F0880FA8982F5F6F
:1019D000283011F0F5CFA898179A1F98A89AA898C0
:1019E00017981F9A99270895179A1F9AA89AA89846
:1019F0000895982F969596959695E1E0F4E0E90F75
:101A0000F11D877021E030E002C0220F331F8A955C
:101A1000E2F7808182239927089580919A0A88238A
:101A200011F0813011F478E008C0882329F081306A
:101A300019F02FE170E002C070E02EE1622FEFB7E5
:101A4000F894809135028E7F8093350287B1982F6C
:101A50009F71829586958695837019F080E090E05D
:101A600012C0822F8850863118F081E090E00BC0C0
:101A700040E050E03327892F99272817390711F4C0
:101A800041E050E0CA01982F9170990F8091350282
:101A90008178262F2F71422F440F440F892B842BDE
:101AA00080933502332727B9783059F58091930A0E
:101AB0009091940A21E08638920718F087E090E030
:101AC0001FC0833C910518F086E090E019C0813674
:101AD000910518F085E090E013C08033910518F06F
:101AE00084E090E00DC08831910518F083E090E02B
:101AF00007C00C9718F082E090E002C080E090E010
:101B0000782F7770887D872B886D992786B98E2FDF
:101B100099278FBF08950F931F93CF93DF93182FAB
:101B20008FB7F894282F3327022F80917F018823C5
:101B300059F581E080937F011093EA052FBF8FB79D
:101B4000F8949927379A8FBF8FB7F894C82FDD275D
:101B50009C2F80912C018230A9F480917F018130EB
:101B600021F483E00E94640209C0823059F480911C
:101B7000EA0580932C0183E080937F01CFBF80E052
:101B800090E025C09FBFFBCF8091EA05811711F43B
:101B90002FBFF5CF812F0E94F90C882319F085E023
:101BA00090E014C0E12FE695E695E695FF27EF5FFC
:101BB000FB4F177081E090E002C0880F991F1A95C3
:101BC000E2F72081282B208380E090E00FBFDF9197
:101BD000CF911F910F910895DF92EF92FF920F9393
:101BE0001F938FB7F894282F3327D22E91B782B73F
:101BF00046B7981711F041FF02C02FBF6AC080910D
:101C00007D038823E1F10E94FA05E090D605F0906B
:101C1000D7050091D8051091D9052091D5013091B3
:101C2000D6014091D7015091D8016E197F09800BE0
:101C3000910B621773078407950720F010927D03BC
:101C400071E01EC02E0D3F1D401F511F8091BE012F
:101C50009091BF01A091C001B091C101281B390B27
:101C60004A0B5B0B273E31054105510540F4822F9D
:101C7000223010F070E005C070E082E002C070E039
:101C800086EE682F615000B601FCFDCF82B7681761
:101C900009F46F5F2091BE013091BF014091C001F6
:101CA0005091C101DA01C9010196A11DB11D860F34
:101CB000911DA11DB11D82179307A407B50710F44C
:101CC000622F609561BFDFBE772319F081E00E942B
:101CD00064021F910F91FF90EF90DF900895AFB7CE
:101CE000F894BB27E1E0E0937D036093D605709301
:101CF000D7058093D8059093D9052093D5013093CB
:101D0000D6014093D7015093D801AFBF0E94EC0D8C
:101D10000895AF92BF92CF92DF92EF92FF920F930E
:101D20001F93CF93DF93CDB7DEB728970FB6F89404
:101D3000DEBF0FBECDBF20E070E0E0910001F0916A
:101D4000010132E14DE65CE46FE4809101019E2FD8
:101D500028960FB6F894DEBF0FBECDBFDF91CF91AE
:101D60001F910F91FF90EF90DF90CF90BF90AF90B9
:101D700008951F920F920FB60F9211248F9383B77D
:101D800083BF00B600FCFDCF8F910F900FBE0F9068
:101D90001F9018951F920F920FB60F9211242F9338
:101DA0003F934F935F936F937F938F939F93AF93E3
:101DB000BF93EF93FF9344B155B178948FB7F894E4
:101DC000992720913502322F3695317021708FBFBF
:101DD0002223D9F4339880917503813021F0823029
:101DE00009F039C00AC0332351F05093B405409331
:101DF000B30584E00E9464022EC0332319F40E94CC
:101E00000D0D29C01092750326C08FB7F89499273D
:101E10008FBF2FB7F894332786B1582F5770482FAC
:101E20004072987D942B952B8074977B982B9061B2
:101E30009F77892F992786B9887D842B852B877377
:101E40008061992786B9887D842B852B877B806963
:101E5000992786B92FBFFF91EF91BF91AF919F91C5
:101E60008F917F916F915F914F913F912F910F9043
:101E70000FBE0F901F9018951F920F920FB60F92E2
:101E800011240F900FBE0F901F9018951F920F9264
:101E90000FB60F9211240F900FBE0F901F90189540
:101EA0001F920F920FB60F9211240F900FBE0F903A
:101EB0001F9018951F920F920FB60F9211240F903A
:101EC0000FBE0F901F9018951F920F920FB60F9292
:101ED00011242F933F934F935F936F937F938F932F
:101EE0009F93AF93BF93EF93FF9386E10E946402A9
:101EF000FF91EF91BF91AF919F918F917F916F91E2
:101F00005F914F913F912F910F900FBE0F901F90B7
:101F100018951F920F920FB60F9211240F900FBEBB
:101F20000F901F9018951F920F920FB60F921124C9
:101F30002F933F934F935F936F937F938F939F93D1
:101F4000AF93BF93EF93FF9389B78F7789BF85E0F6
:101F50000E946402FF91EF91BF91AF919F918F9189
:101F60007F916F915F914F913F912F910F900FBE95
:101F70000F901F90189578941F920F920FB60F92A2
:101F800011240F900FBE0F901F90189578941F92F8
:101F90000F920FB60F9211240F900FBE0F901F904B
:101FA000189578941F920F920FB60F9211242F93C9
:101FB0003F938F939F932FB7F894332780918C038F
:101FC00090918D03019690938D0380938C032FBF86
:101FD0009F918F913F912F910F900FBE0F901F9067
:101FE0001895E8E0F1E06927660FF11DE60FF11D95
:101FF000C895982F802D3196C89590250895982FD3
:102000008091B001882389F5992379F531E03093E7
:10201000B001809151018093B1012091A501822FDF
:1020200081708093DC0180915601909157019093CB
:10203000B3018093B2018091A6018093B40132274D
:102040003170267EE32FFF27EE0FFF1FEE5AFE4F63
:10205000808191819093570180935601232B209387
:10206000A50187E30E94640208958091A50180FF85
:1020700002C08B7F01C08D7F8093A50108950F93CF
:102080001F93082F162F809196028130D9F081304E
:1020900038F0823009F44AC0833009F028C159C0B1
:1020A000002309F458C11092E3091092E20910923A
:1020B000B8051092180A1092EC0210928F03109239
:1020C0008E0339C1002309F046C180918E0390919F
:1020D0008F030E94F10F90938F0380938E0382E011
:1020E000809396021093180A143409F000C125C198
:1020F0008695869503C08091A5018695817009F02B
:10210000F6C08091A501992311F0846001C082601E
:102110008093A5018091A501877E88608093A501A9
:102120001092A6018FEF8093510115C1002309F091
:10213000DEC06093EC0280918E0390918F030E9429
:10214000F10F90938F0380938E0383E08093960228
:1021500002C18091B8058F3F09F4C9C0002309F47A
:1021600061C0823008F4C3C0E091E209EE2309F4B3
:10217000EBC04E2F4150E42FFF27EE51F64F8281E6
:102180009927382F2227442311F4E2E002C0E42FDC
:10219000E150FF27EE51F64F82819927282B392BEA
:1021A00080918E0390918F032817390709F09FC003
:1021B00080E00E94FF0F3091EC0280917E0320911D
:1021C0007F03982F9F5F963008F090E0921771F090
:1021D000E82FFF27E258FC4F32838F5F80937E0306
:1021E000863010F010927E030E94D9021092E3090B
:1021F0001092E20994E0909396021092B805109222
:10220000180A1092EC0210928F0310928E038091A4
:10221000B5018D7F8093B5018091A401882309F4D5
:102220009AC084C0823008F44EC0E091E309FF27D1
:10223000EE51F64F8281482F5527342F2091A5016A
:10224000822F869586958695837099278130910592
:1022500019F00297F9F40EC0277E20612093A501A2
:10226000442311F485E001C080E08093A6013093FF
:10227000510110C08091A601823560F4E0915601B1
:10228000F0915701E80FF11D40838091A6018F5F07
:102290008093A6018091E309E82FFF27EE51F64FC6
:1022A00062818F5F8093E309833010F01092E3091D
:1022B000772780918E0390918F030E94F10F909366
:1022C0008F0380938E038091E209E82FFF27EE5160
:1022D000F64F12838F5F8093E209833010F01092E3
:1022E000E2098091B8058F5F8093B80534C01092E1
:1022F000E3091092E20914E0109396021092B805D7
:102300001092180A1092EC0210928F0310928E0312
:102310008091B5018D7F8093B50181E00E94FF0F10
:102320008091A401882329F0109396020E94AD04A5
:1023300012C0002381F081E009CF8091A501982F80
:10234000917080FDD5CED7CE8091E6099927382FA0
:10235000222742E01CCF1F910F9108951F920F92E8
:102360000FB60F9211242F933F934F935F936F9368
:102370007F938F939F93AF93BF93EF93FF935F9B55
:102380003DC06CB1E0919003F09191033097F9F06A
:102390008091FE0A9091FF0AE80FF91F6083019671
:1023A0009093FF0A8093FE0A2091230B3091240B17
:1023B0008217930718F11092910310929003809165
:1023C00082058330D9F057981092820517C06E3776
:1023D00019F460E081E010C08091B5016D3721F4FF
:1023E00082608093B5010AC081FF05C08D7F809314
:1023F000B50180E2682780E00E943F10FF91EF91D5
:10240000BF91AF919F918F917F916F915F914F910C
:102410003F912F910F900FBE0F901F901895982FFE
:102420008D57823068F48091B50181608093B50149
:1024300080E289278093B7058DE780931E0202C052
:1024400090931E0261E070E08EE192E00E94C6046B
:102450009927089578941F920F920FB60F92112426
:10246000FF920F931F932F933F934F935F936F931D
:102470007F938F939F93AF93BF93CF93DF93EF930C
:10248000FF932091E9023091EA028091110A909124
:10249000120A2817390780F4E0916B03F0916C035E
:1024A000E20FF31F80812F5F3F4F3093EA022093AA
:1024B000E9020E94BF04CDC010926C0310926B031E
:1024C0001092EB025698FFB6F8948091B50180FF08
:1024D0000EC08E7F8093B5018091B70580931E0258
:1024E00061E070E08EE192E00E94C604AFC080918E
:1024F000B505843009F48CC0853040F4823021F178
:102500008330B8F5813009F09CC00DC0863009F4E5
:102510008DC0863008F483C0873009F48EC08830BF
:1025200009F08FC091C0809160030E940F12082FA4
:1025300083E08093B505609160038091200B9091BA
:10254000210B0E94F10F10C08091990A0E940F1276
:10255000082F83E08093B5056091990A8091200B44
:102560009091210B0E94F10F9093210B8093200BEF
:1025700066C0E0910004FF27EE0FFF1FEE58FC4FEE
:1025800080810E940F12082F10910004C12FDD27B7
:10259000FE01EE0FFF1FEE58FC4F60818091200B73
:1025A0009091210B0E94F10F9093210B8093200BAF
:1025B000209156032F5F20935603113039F58091F7
:1025C000AC01E091A701F091A801E80FF11DE081B5
:1025D0008F5F8093AC019091AB01981730F482E04B
:1025E0008093730340E050E002C04E2F5527DE0178
:1025F000AA0FBB1FFD01EF58FC4F8081823031F0E4
:102600002F3F21F0AE58BC4F4C9319C084E012C04C
:102610008091200B0E940F12082F85E00BC0809143
:10262000210B0E940F12082F86E004C00E94F304C1
:10263000082F87E08093B50502C088E003C000231F
:1026400029F089E08093B5050E94D9028F2D992742
:102650008FBFFF91EF91DF91CF91BF91AF919F918C
:102660008F917F916F915F914F913F912F911F912A
:102670000F91FF900F900FBE0F901F9018951F9213
:102680000F920FB60F9211248F9380919B0087FFBA
:1026900002C080919C008F910F900FBE0F901F90F1
:1026A000189578941F920F920FB60F9211240F90E5
:1026B0000FBE0F901F90189578941F920F920FB62F
:1026C0000F9211240F900FBE0F901F9018957894C1
:1026D0001F920F920FB60F9211240F900FBE0F9002
:1026E0001F90189578941F920F920FB60F92112495
:1026F0000F900FBE0F901F90189578941F920F9215
:102700000FB60F9211248F939F9380918000909128
:1027100081009F918F910F900FBE0F901F90189581
:1027200078941F920F920FB60F9211242F933F931C
:102730008F939F932FB7F8943327809151039091F3
:102740005203019690935203809351032FBF9F91A0
:102750008F913F912F910F900FBE0F901F90189562
:10276000CF93DF93EC0180917B01882389F4A1E072
:10277000B3E0FB0182E201900D928150E1F781E02C
:1027800080937B0182E280931C0280E00E946402BD
:10279000CE01DF91CF910895AF92BF92CF92DF9299
:1027A000FF920F931F93CF93DF936C01EC018A810B
:1027B000882359F4D092A70AC092A60A8A81882356
:1027C00009F07FC010927A017CC0442309F471C0E3
:1027D000F601A080B1808091C201843009F046C02A
:1027E000C5010E940B072091C201622F0E9447473A
:1027F000492F9217D8F5992359F480917C03992792
:10280000019664E070E00E94674780937C0329C0D2
:1028100080917C03840F912D911D9C012370307059
:10282000E901CC0FDD1FCC0FDD1FC20FD31F0196B6
:1028300064E070E00E946747FC01EE0FFF1FEE0F9F
:10284000FF1FE80FF91FC15EDD4FE15EFD4F85E020
:10285000019009928150E1F74F5F8091C2014817C2
:10286000B8F28091C20181508093C201F090C20100
:1028700080917C038F0D912D911D837090708C0140
:10288000000F111F000F111F080F191F015E1D4FB0
:10289000C5010E940107E80199838883F5013C96F0
:1028A00086818A8381818C8387818B83F394F092E4
:1028B000C201F601808191810E944E07C6010E94EB
:1028C0006D07DF91CF911F910F91FF90DF90CF9017
:1028D000BF90AF9008951F920F920FB60F921124E0
:1028E0002F933F934F935F936F937F938F939F9318
:1028F000AF93BF93EF93FF9383B783BF00B600FC02
:10290000FDCF81B799270196AA27BB272091BE0149
:102910003091BF014091C0015091C101280F391F72
:102920004A1F5B1F2093BE013093BF014093C0013B
:102930005093C10178940E94EC0DFF91EF91BF91EB
:10294000AF919F918F917F916F915F914F913F9147
:102950002F910F900FBE0F901F901895FF920F931D
:102960001F93CF93DF93F82E8B018FB7F894C82F66
:10297000DD2760E080E00E948D03882321F0CFBF37
:1029800080E090E00CC0CFBF8F2D0E943A09812FCC
:1029900099270E943A09802F0E943A099927DF91CE
:1029A000CF911F910F91FF9008951F931FB7F89437
:1029B00080913602882319F460E070E009C060E07D
:1029C0008091A50A882309F461E081E068277727D0
:1029D0008091F402882319F480E090E00AC090E02E
:1029E0008091E105882309F491E081E09827892FFF
:1029F0009927762F6627770F770F770FE4E0880FF8
:102A0000991FEA95E1F7826E9262682B792B81E13A
:102A10000E94AE14812F99278FBF1F9108958FB701
:102A2000F89499276091EB058FBF85E0689FB0010E
:102A30001124625D7E4F706488E10E94AE14089597
:102A40000F931F93CF93DF93182F8FB7F894C82F4E
:102A5000DD270C2F61E080E00E94AA03882321F08B
:102A6000CFBF85E090E020C080913E018823A1F493
:102A700080919301823081F409C082E080939301B8
:102A800010923E010E942509B89AC09810933B010C
:102A900080E00FBF992708C080919301882369F3D4
:102AA0000E94DE0881E0F5CFDF91CF911F910F9159
:102AB0000895EF92FF920F931F93CF93DF93982F78
:102AC0008FB7F894E82E80917F01833009F045C0DC
:102AD00080912C01891709F040C08091010488235E
:102AE00009F046C03EC0EF2DE695E695E695FF2736
:102AF0004F2D5527EF5FFB4F9A012770307081E013
:102B000090E002C0880F991F2A95E2F780952081F6
:102B100028232083C0937E0111C02196C230D105A5
:102B200011F4C0E0D0E0FC2E8C2F0E94F90C882319
:102B3000D1F6C017D10789F74FEF50E04093EA056F
:102B40008FEF80932C0181E080937F0183E00E94CE
:102B50006402EFBE80E090E011C0EFBE81E090E043
:102B60000DC082E080932C0110927F013798F1CF45
:102B700080917E01082F1127E801CFCFDF91CF91FF
:102B80001F910F91FF90EF900895CF93DF931092D4
:102B90007503C091B305D091B40580919A0A88233A
:102BA00019F0813049F404C080E00E94591506C034
:102BB00081E00E9459150CC0882351F4C093F80994
:102BC0008D2F99278093F709D0937D01C0937C01C5
:102BD000DF91CF9108951F93CF93DF93982F8FB7F5
:102BE000F894282F3327422F80918801882309F0F9
:102BF00044C011E01093880190931B022FBF8FB740
:102C0000F894C82FDD27809189018823B9F488982A
:102C100089981092710081E4809370001092720084
:102C2000109274000E94A70B8091810584608E7FB2
:102C3000809381058093740010938901CFBF8FB773
:102C4000F894C82FDD279C2F80913401823099F4AD
:102C500080918801813021F48DE00E94640209C0D6
:102C6000823049F480911B028093340183E0809389
:102C70008801CFBF07C09FBF05C080911B02891785
:102C800021F42FBF80E090E021C0E92FFF27E35619
:102C9000F54F80818F3F89F4E0913301E91789F482
:102CA0000CC09093320104C0FF27E356F54F908388
:102CB0009093330180E090E002C085E090E04FBF48
:102CC00005C0809132018F3F79F7EBCFDF91CF9133
:102CD0001F91089580913701882319F481E090E0D5
:102CE00008951092370181E080938B0180E00E946B
:102CF000EB1580E090E0089581E00E94EB159927A4
:102D000008951F93982F8FB7F894182F80918401FE
:102D10008330D1F5809130018917B1F580912E0172
:102D200020E030E08F3F11F421E030E0232BE9F484
:102D30008F3F19F42FEF30E00EC0282F3327F90111
:102D4000E35AFC4F808180932E018F3F11F48093D2
:102D50002F018FEF80832093F3028FEF8093300158
:102D600081E08093840188E009C082E08093300193
:102D70001092840181E0809385018AE00E946402C0
:102D80001FBF80E090E003C01FBF81E090E01F9173
:102D9000089581E00E9481169927089580E00E949D
:102DA00081169927089580913101882319F48BE0C9
:102DB0000E94640281E08093370108952FB7F89450
:102DC000332780911B028093340183E08093880134
:102DD0002FBF209134018FB7F894992720933501A4
:102DE0008FBF222319F02130A1F408C080918B01FC
:102DF000882311F08FE007C08EE005C080918D011F
:102E0000882321F088E10E946402089587E10E94EE
:102E1000640208950F931F93182F0FB7F89461E081
:102E200080E00E94AA03882371F510933B018091F2
:102E30003E018823A9F580919301823089F581E2D2
:102E40000CC00E94250980919301882349F481E0F8
:102E50008093930110923A0283E20E9464022AC096
:102E6000809192028F3F31F5E0913D01EE2311F107
:102E70001CC010923C0104C0FF27EE56FD4F10828B
:102E800010923D0117C081E090E002C0880F991FA9
:102E90001A95E2F720919201282B209392010AC003
:102EA000809193018823E1F6CCCF80913C018F3F44
:102EB00019F7DFCF802F99278FBF80E090E01F9117
:102EC0000F9108951F9383E00E9420159927182FD2
:102ED000882319F083E00E940A17812F99271F91F8
:102EE000089580E00E94EB15882319F082E10E948A
:102EF00064020895982F80913701882319F481E0A6
:102F000090E008951092370110928B019093360152
:102F100080E00E94EB1580E090E008951F93182F49
:102F20001092870180912E0481FF03C08D7F8093D2
:102F30002E0480913101813081F4812F0E947A1713
:102F40009927882311F099270CC088ED94E0019708
:102F500001960197E1F710923101812F0E947A17B3
:102F600099271F9108958091450190914601892BE1
:102F700019F480E090E0089562E084E00E948D03FF
:102F800090E0882309F491E081E09827892F992720
:102F90000895CF92DF92EF92FF920F931F93CF93FA
:102FA000DF938C01F62E6A01E22E8FB7F894C82FBA
:102FB000DD2760E080E00E948D03882321F0CFBFF1
:102FC00080E090E01EC0CFBF0F0D111D802F8068E4
:102FD0000E943A09F82E16950795802F807C0E9452
:102FE0003A090E2D0AC0EE2DFF27E01BF109EC0D6A
:102FF000FD1D80810E943A0901500023A1F78F2D09
:103000009927DF91CF911F910F91FF90EF90DF9063
:10301000CF900895CF93DF93CDB7DEB72C970FB63F
:10302000F894DEBF0FBECDBF8FB7F894282FAE0146
:103030004F5F5F4FDA01E2EEF5E088E001900D921C
:103040008150E1F78091ED029091EE028987892FFE
:1030500099278A8780916503909166038B87892FD2
:1030600099278C872FBF2CE060E080E691E00E94DA
:10307000C9172C960FB6F894DEBF0FBECDBFDF91F7
:10308000CF9108951F93CF93DF93182F8FB7F894A4
:10309000C82FDD2760E080E00E948D03882321F0A7
:1030A000CFBF80E090E005C0CFBF812F0E943A09DA
:1030B0009927DF91CF911F91089583E00E944218D4
:1030C000992708951F9380919201882309F04BC09E
:1030D00010913B011F3F09F046C060E00E948D0344
:1030E000882309F440C081E08093C4098091DE0107
:1030F0008823E1F11092C40985E090E045C0923048
:1031000069F5C09A80913C0120E030E08F3F11F4D6
:1031100021E030E0232BE9F410933E018F3F19F4B6
:103120002FEF30E00DC0282F3327F901EE56FD4F69
:10313000808180933C018F3F11F410933D011083F7
:1031400020933A0281E08093930183E20E9464021B
:1031500005C010933E011092930111C0809193011C
:10316000882369F00FC081E090E00EC080913E019D
:1031700090919301882319F2923021F0EFCF80E0F3
:103180000E94E50880E090E01F9108951F93182F9A
:1031900081E090E090939501809394011092DE017C
:1031A0000E9462188FB7F894992710938E018FBFF1
:1031B0008DE10E9464021F9108951F93CF93DF93C6
:1031C0009FB7F894C92FDD271C2F90913B019817CA
:1031D00021F0CFBF81E090E036C08FEF80933B01BC
:1031E000309192013323D1F40E94DE080E946218CC
:1031F000CFBF11C020933B0181E090E002C0880F57
:10320000991F4A95E2F7809538233093920181E225
:103210000E9464021FBF80E090E015C080E065E07E
:10322000E32FFF270E944747292F492F5527CF011A
:10323000042E02C0959587950A94E2F780FDDACFB7
:10324000822F8F5FEFCFDF91CF911F910895FF9273
:103250000F931F93CF93DF93C0914703D0914803FF
:10326000CA5BDF4F8A81C654D0409927182F882324
:1032700009F41FE1C09880913402811749F0612F51
:1032800077276F717070606E706885E10E94AE1470
:1032900010933402F8808FB7F894082F112760E05C
:1032A00080E00E948D03882311F00FBF12C00FBF72
:1032B0008EE390E090936E0380936D038EE30E9403
:1032C0003A09FA944F2D552760E070E0CE010E9434
:1032D000B409DF91CF911F910F91FF9008950F9343
:1032E0001F93CF93DF93C091D405D091D5058FB7AD
:1032F000F894082F112762E081E00E948D03882353
:1033000029F40FBF86E20E9464025FC0AE014A5BEF
:103310005F4F8FB7F894992724E02093DB058FBF88
:10332000D0937B03C0937A030FBFDE011196FD019A
:10333000818129819927982F88273327822B932BE6
:1033400080729C7C8983892F992781832981982F7A
:10335000882733272164822B932B8983892F9927F0
:103360008183FA01148210821182118610861782DD
:1033700080E8868361E06093E00540917A03509194
:103380007B038FB7F894282F332780919401909175
:1033900095018830910511F0019711F02FBF15C0EC
:1033A00082E090E090939501809394016093070BE5
:1033B00050934803409347031092BC012FBF0E94D3
:1033C0006217882311F40E942719DF91CF911F9172
:1033D0000F910895EF92FF920F931F93CF93DF9376
:1033E000182F7B01042F8FB7F894C82FDD2760E0DA
:1033F00080E00E948D03882321F0CFBF80E090E021
:1034000014C0CFBF1064812F992790936E038093CF
:103410006D030E943A09182F402F5527B70180E00D
:1034200090E00E94B409812F9927DF91CF911F91DD
:103430000F91FF90EF900895C0986091B601709140
:10344000B70141E08FE30E94EA19089582E090E01D
:1034500090931A028093190281E08093950220E0F4
:1034600030E080913B01843011F421E030E0232BE7
:1034700029F484E00E942015882319F40E941C1A64
:10348000089584E00E940A1708951F93CF93DF9355
:103490008FB7F894C82FDD271C2F809119029091C7
:1034A0001A02892B29F484E00E94DD18CFBF1EC0C8
:1034B0001092950280913702882311F0B79904C0C9
:1034C0000E9908C0882319F08150809337020E941A
:1034D000261A0BC081E090E090931A0280931902A3
:1034E0001092370284E00E94DD181FBFDF91CF9158
:1034F0001F9108950E94EB08C09AC09888E00E942E
:10350000421888E00E944218C09A84E00E94DD18A8
:103510000E94451A08951F920F920FB60F92112420
:103520002F933F934F935F936F937F938F939F93CB
:10353000AF93BF93EF93FF938091190290911A027A
:10354000019749F482E090E090931A028093190267
:103550000E94261A05C0809137028F5F8093370240
:10356000FF91EF91BF91AF919F918F917F916F915B
:103570005F914F913F912F910F900FBE0F901F9031
:1035800018950F931F938C010E945205DC01CB010B
:1035900066E371E00E9453470B969093D3018093AA
:1035A000D2010A5B1F4FF80182859927982F88273F
:1035B00023853327822B932B892B69F00E94520598
:1035C000DC01CB0168E270E00E9453470B969093B8
:1035D000D3018093D2011F910F910895882321F088
:1035E0000E94F8066FEF7FEF6093FC09872F992701
:1035F0008093FB0980917A01882309F065C080914E
:10360000000190910101892B09F45EC062E28CEA0D
:103610009AE00E94D208009719F40E94840308954A
:10362000FC01AFEEB9E082E20D9001928150E1F72A
:103630008091620190916301019690936301809360
:10364000620180919A0181FF3DC087E38093AC0ABB
:1036500080910001909101018093BD0A892F9927E3
:103660008093BC0A8091DB018F5F8093DB018150E6
:103670008093BE0A83E98093BF0A1092B90AE09151
:10368000A60AF091A70A3097E9F08CEA9AE09183B4
:103690008083128285E08383CF010E945F0B8823A1
:1036A00089F480919A0182FF05C084FD03C08DE2F8
:1036B0000E9464021092A70A1092A60A81E08093E9
:1036C0007A0102C00E94F8061092D9018091A40AE2
:1036D000882389F48091F5099927982F88272091CC
:1036E000F6093327822B932B01968093F609892FB5
:1036F00099278093F5091092A40A40E050EB64E00A
:1037000070E080E00E94010908950F931F9380915B
:1037100080018823A9F1809125048D7F8093250461
:103720000E94DE0C082F0E94DE0C182F0E94DE0C77
:103730000E94F40C8091C3019091C40183309105E3
:1037400019F00597E9F414C0109280018091010BE3
:103750008823B1F40E948116602F7727762F662781
:10376000812F9927682B792B80E00E94EE1A08C0E0
:10377000109280018091010B813011F40E9481161A
:103780001F910F91089563E084E00E948D038823C8
:1037900081F08FB7F89499271092DE058FBF1092B1
:1037A000A00180919A018B7F80939A0181E090E043
:1037B000089561E084E00E948D03882319F480E07D
:1037C00090E008958FB7F894992722E02093DE05C2
:1037D0008FBF81E08093A0018091A101882311F027
:1037E0000E94520580919A01846080939A0190E032
:1037F00080919D01882309F491E0992319F48DE2C9
:103800000E9464028091000190910101892BA9F42A
:103810008FB7F894282F3327922F8091B5058A30DF
:1038200041F080919602843021F02FBF0E948403E2
:1038300004C09FBF83E30E94640240E050EB64E059
:1038400070E080E00E9401091092D90181E090E0CF
:1038500008950F931F930FB7F894112710929501B5
:103860001092940187B78F7E87BF87B78F7D87BF00
:1038700083E00E94DD18C09A0FBF0FB7F89411279C
:1038800010921A02109219020E94EB08C09A89B78E
:103890008F7B89BF0FBF80E090E01F910F9108954B
:1038A0000E94291C0E94F7088CE10E94640208957E
:1038B0001F93182F0E944E0C81E00E94590C8AE140
:1038C0000E946402112321F08BB391E089278BBB06
:1038D0001F91089562E081E00E948D03882379F0B2
:1038E0008FB7F894992723E02093DB058FBF0E94C0
:1038F000291C0E94F7088CE10E9464021DC060E050
:1039000081E00E948D03882319F089E090E00895FA
:1039100064E081E00E948D03882341F08FB7F89422
:10392000992723E02093DB058FBF06C063E081E089
:103930000E948D03882319F080E090E0089585E0CF
:1039400090E00895EF92FF920F931F93F62EE22ED0
:103950009FB7F894292F332790913501981711F0CC
:103960002FBF9BC02FBF8FB7F894282F332780918C
:103970008901813041F582E0809389012FBF8FB7A3
:10398000F894992750934A034093490310933902BE
:1039900000933802E092BD016093220B1092130A4B
:1039A00010928A018FBF0E94A70B8FB7F894182F2F
:1039B00090918105916C9F7E909381056F2D772763
:1039C00060FD0BC011C0882321F42FBF84E090E07C
:1039D0006EC02FBF85E090E06AC090629093810531
:1039E00084E0809389015CC0EE2009F448C083E044
:1039F000809389012091130A8091BD01281778F4E2
:103A0000E0913802F0913902E20FF11D808180933C
:103A100073002F5F2093130A9093740045C0292FE1
:103A20002E7F209381058091220B81FF07C08D7F1F
:103A30008093220B20612093810503C09E77909391
:103A40008105809181058093740081E080938901D4
:103A500080913501882319F0813031F507C00E942B
:103A60004E0C80E00E94590C80E106C00E944E0C72
:103A700081E00E94590C89E10E94640215C061FF37
:103A800008C085E0809389019F7B906190938105B8
:103A900007C081E0809389011FBF81E090E007C0EB
:103AA00080918105809374001FBF80E090E01F919A
:103AB0000F91FF90EF9008950F931F93809136011F
:103AC00080935F030FE513E021E04AE450E063E0F8
:103AD00080E00E94A21C882319F08EE00E946402FC
:103AE0001F910F9108950F931F9380913901809337
:103AF0009C0A0CE91AE021E04FE350E063E081E02A
:103B00000E94A21C882319F087E10E9464021F9181
:103B10000F9108950F931F93082F0E94A70B809178
:103B200081058A7F80938105809374000E94A70B92
:103B3000809181058460809381058093740081E089
:103B40008093890180918A01109135018823D1F0F9
:103B500020913802309139024091BD0160914903B2
:103B600070914A03112319F0113039F507C00E94F2
:103B70004E0C80E00E94590C81E10FC0802F0E9402
:103B8000581C1BC0112319F01130B9F409C00E9450
:103B90004E0C80E00E94590C80E10E9464020DC02E
:103BA0000E944E0C81E00E94590C89E10E9464023F
:103BB000002319F08BB381278BBB1F910F910895C0
:103BC0001F920F920FB60F9211242F933F934F9392
:103BD0005F936F937F938F939F93AF93BF93EF9375
:103BE000FF930E94A70B80918901843009F424C1BE
:103BF000863021F0833009F04CC17CC09091710077
:103C0000987F80918A018130D9F5903409F070C095
:103C100083E0809389012091130A4091BD0124170C
:103C200008F481C020918105322F3E7F30938105B9
:103C30008091220B81FF09C08D7F8093220B306120
:103C4000309381058091710003C02E772093810508
:103C5000809181058093740081E080938901209197
:103C60003802309139026091490370914A03809182
:103C70003501882309F499C0813009F00AC19CC03C
:103C80009831B1F583E0809389019091130A809176
:103C9000BD0120918105981708F498C0922F9E7F4E
:103CA000909381058091220B81FF07C08D7F8093C7
:103CB000220B90619093810503C02E77209381059C
:103CC000809181058093740081E0809389018091C7
:103CD0003501882321F0813009F0DBC0A6C00E94A5
:103CE0004E0C80E00E94590C80E10E946402D1C019
:103CF00084E0B7C080918A019091130A813009F065
:103D00005FC0E0913802F0913902E90FF11D809116
:103D1000730080832091130A2F5F2093130A409130
:103D2000BD012417A8F43327842F9927019728175A
:103D3000390749F48091220B82FD05C080918105ED
:103D40008F7B809381058091810580937400A1C051
:103D500020918105322F3E7F309381058091220B87
:103D600081FF09C08D7F8093220B306130938105E4
:103D70008091710003C02E77209381058091810589
:103D80008093740081E08093890120913802309102
:103D900039026091490370914A038091350188236B
:103DA00021F0813009F075C007C00E944E0C80E000
:103DB0000E94590C81E199CF80E00E94581C69C093
:103DC0008091BD0120918105981778F4E091380227
:103DD000F0913902E90FF11D8081809373009F5F9C
:103DE0009093130A2093740054C0922F9E7F909357
:103DF00081058091220B81FF07C08D7F8093220B6C
:103E000090619093810503C02E7720938105809166
:103E100081058093740081E0809389018091350150
:103E2000882309F45CCF8130A1F50E944E0C81E01B
:103E30000E94590C89E159CF8091220B8E7F80938B
:103E4000220B909181059F7D909381058091710057
:103E5000887F883049F080917100887F803121F01F
:103E600081E00E948A1D15C0392F3064309381058E
:103E700090914903990F20E080918A01813009F4E3
:103E800021E0922B9093730086E080938901309318
:103E90007400FF91EF91BF91AF919F918F917F91AE
:103EA0006F915F914F913F912F910F900FBE0F90A7
:103EB0001F90189561E081E00E94AA038823E9F42D
:103EC0008FB7F894282F332780918F01909190011C
:103ED000892B11F02FBF20C081E090E090939001DA
:103EE00080938F012FBFDD9A0E94C40324E130E04C
:103EF00040E050E00E9481040FC062E081E00E9437
:103F00008D03882319F089E090E0089561E081E055
:103F10000E948D03882319F080E090E0089585E0E9
:103F200090E00895DF92EF92FF920F931F93DFB618
:103F3000F89400914703109148030E945205DC0158
:103F4000CB0166E470E00E9453470B969093040BFC
:103F50008093030B0A5B1F4FF80182852385992705
:103F6000982F88273327822B932B892B69F00E9467
:103F70005205DC01CB016EE170E00E9453470B96C5
:103F80009093040B8093030BE090030BF090040BD1
:103F9000002711270E94C403A80197010E948104F1
:103FA0008D2D99278FBF1F910F91FF90EF90DF907C
:103FB00008951F93CF93DF938FB7F894C82FDD2711
:103FC0001C2F80919401909195010897C9F489E084
:103FD0000E94421883E00E94DD18C09A81E090E0C0
:103FE00090939501809394018FB7F894992723E0DB
:103FF00020938E018FBF8DE10E946402CFBF30C03D
:10400000C0988091070B882311F085E001C084E0FF
:104010000E94421883FD09C080E00E94421883FF7D
:1040200004C085E090E020E003C083E090E021E060
:104030009093950180939401C09A1FBF222341F071
:104040001092BC0183E00E94DD180E94921F08C0FC
:104050000E94C40320E431E040E050E00E9481046B
:10406000DF91CF911F9108951F93CF93DF938FB767
:10407000F894992710913B018FBF123009F465C065
:10408000133030F4112359F0113009F0ACC048C09E
:10409000133009F474C0143009F0A5C0A2C0C09850
:1040A0008FB7F894C82FDD2780918F0190919001F0
:1040B0000297A1F583E090E09093900180938F01A7
:1040C00068E170E08DE10E94AE1481E080936903A5
:1040D0001092910180B39927A6E096958795AA95AD
:1040E000E1F78170907080936A0380E20E9464021D
:1040F00081E00E9442186FE772E08CE10E94AE14EA
:104100000E940F150E94D51466E57AE287E10E94AD
:10411000AE146FEF70E885E10E94AE14CFBF63C0AC
:10412000C09886E00E9442180E940F150E94D51484
:104130000E940A18C09AC09883E00E944218C09A50
:1041400081E00E94DD188FE145C0C0988FB7F894D8
:10415000C82FDD2760E080E00E948D03882311F0E6
:10416000CFBF0AC0CFBF83E50E943A0980E00E941A
:104170003A0980E00E943A09C09A82E02FC08FB7C6
:10418000F8949927209194018FBF243039F028307A
:1041900041F0223011F50E94271925C00E94D91F35
:1041A00022C0C09889E00E944218C09A83E00E9411
:1041B000DD188FB7F894992721E030E0309395010E
:1041C000209394018FBF8FB7F894992710938E0195
:1041D0008FBF8DE10E94640206C083E00E94DD185B
:1041E00002C00E941C1ADF91CF911F910895EF9297
:1041F000FF920F931F93CF93DF938B0180916D03F9
:1042000090916E0386FF47C18F7B8F3309F08EC17B
:10421000C091B601D091B701588150931D02809191
:10422000190290911A028530910509F443C0863035
:10423000910509F48AC0029709F026C185E090E053
:1042400090931A02809319024091DA01852F9927E1
:104250000196242F3327281739074CF1B79906C048
:104260000E9904C0451B41504093DA0140911D0254
:104270004834E8F44423A1F0BE016F5F7F4F48301B
:1042800018F047E050E007C086E090E090931A02F3
:1042900080931902552780E090E00E94B40946C13E
:1042A00010929502C09A84E00E94DD18EAC00E9434
:1042B0007A1A3CC186E090E090931A02809319022A
:1042C0008091F402882309F439C08091E1058823A4
:1042D000A9F5898185FF32C08F814E812FB7F8946F
:1042E000332760916503709166032FBF9927982F3C
:1042F00088275527842B952B8617970759F08F8190
:104300002E819927982F88273327822B932B8F5F15
:104310009F4FA1F489818770813081F4C09AC09841
:104320008AE00E944218C09AC09840911D024750EE
:104330002896BE018FE30E94EA19F8C040911D0241
:10434000475055272896BE01A6CFC09A80913702C4
:10435000882339F484E00E94DD1880913702882395
:1043600011F0B7990AC00E9B08C09091910A992349
:1043700021F080911D028B3038F48091B60190912C
:10438000B7010E947E0B3FC0913011F5E0919B0A6E
:10439000FF27EE0FFF1FEE0FFF1FE35EF54F20819B
:1043A000318142815381E091B601F091B701EA5B1E
:1043B000FF4F2187BB27A52F942F832F8087CA010A
:1043C000AA27BB278783252F3327442755272683F2
:1043D00080919B0A9927019668E070E00E946747E8
:1043E00080939B0A8091910A81508093910A88233F
:1043F00051F08091B6019091B7010E947E0B10920E
:104400009B0A1092910A80911D02FE01E80FF11D96
:10441000808187FF36C0012BA1F169816770C0914F
:10442000B601D091B701623041F5E0914703F091B8
:104430004803309731F1809194019091950107974D
:1044400001F593818B819817E1F487B78F7E87BF41
:10445000DF01AA5BBF4F988181E0FD018483FE01EB
:10446000E90FF11D829131968C9380818F77FD0148
:10447000818380E00E94C61804C0613011F484E298
:104480002AC00E94451A52C010929502C09A84E038
:104490000E94DD184BC08E3309F048C0C09A80914D
:1044A0009401909195010897C9F4C09889E00E9401
:1044B0004218C09A83E00E94DD1881E090E090935A
:1044C0009501809394018FB7F894992723E0209366
:1044D0008E018FBF8DE10E94640228C08091070B7E
:1044E000882349F484E090E09093950180939401AF
:1044F0000E94D91F1BC083E00E94DD1883E090E07A
:104500009093950180939401809147039091480383
:104510000E94C11AE090D201F090D3010027112728
:104520000E94C403A80197010E948104DF91CF91EA
:104530001F910F91FF90EF9008951F920F920FB669
:104540000F9211242F933F934F935F936F937F9319
:104550008F939F93AF93BF93EF93FF932FB1E0910E
:104560002D05F0912E05309739F0809186039091BA
:104570008703E80FF91F20838091860390918703BA
:104580000196909387038093860380E00E941F0921
:104590004091BA015091BB018091860390918703AD
:1045A0008417950718F40E9446091CC060912D05D8
:1045B00070912E058091A80A9091A90A10922E055B
:1045C00010922D051092A90A1092A80A1092BB0110
:1045D0001092BA0110928703109286032FB120E047
:1045E0000E94F720FF91EF91BF91AF919F918F9122
:1045F0007F916F915F914F913F912F910F900FBEDF
:104600000F901F9018950F931F930FB7F8941127D1
:104610004091BA015091BB0160912D0570912E051A
:104620008091A80A9091A90A10922E0510922D054A
:104630001092A90A1092A80A1092BB011092BA0116
:10464000109287031092860320E00E94F7200FBF8C
:104650001F910F91089578941F920F920FB60F92A9
:1046600011242F923F924F925F926F927F928F927E
:104670009F92AF92BF92CF92DF92EF92FF920F93F1
:104680001F932F933F934F935F936F937F938F93DA
:104690009F93AF93BF93CF93DF93EF93FF93C6B5F1
:1046A000D7B58FB7F894282E0E94C4039B012C1B0A
:1046B0003D0B442755272B013C01421A530A640A3B
:1046C000750A80919401909195018530910521F0B2
:1046D000069709F0E6C0C5C086E090E0909395018A
:1046E0008093940131E0332E309293021092960120
:1046F00080E00E948F0BE0914703F0914803EA5B52
:10470000FF4F4186BB27A72D962D852D8087C3019E
:10471000AA27BB278783872D9927AA27BB278683AC
:10472000E0914703F0914803EA5BFF4F8581E6542F
:10473000F040882309F484C06081655077274F01D9
:10474000860E971EF4012081E1808281A380992743
:10475000AA27BB27BA2FA92F982F882733274427AA
:104760005527522F442733272227FF2400271127BC
:104770008701FF24EE242E293F29402B512BBB24F7
:10478000CC24DD242A293B294C295D29822B932B1B
:10479000A42BB52B84199509A609B7098383292F62
:1047A0003A2F4B2F552722839D01442755272183DC
:1047B0008B2F9927AA27BB278083C09824E0A401C8
:1047C00080E090E00E94C917C09AF4012081E18046
:1047D0008281A3809927AA27BB27BA2FA92F982FB8
:1047E0008827332744275527522F4427332722274A
:1047F000FF24002711278701FF24EE242E293F29BB
:10480000402B512BBB24CC24DD242A293B294C29C5
:104810005D29822B932BA42BB52B840D951DA61DF2
:10482000B71D8383292F3A2F4B2F552722839D01B4
:104830004427552721838B2F9927AA27BB278083BD
:10484000E0914703F0914803818185FF02C03092D7
:10485000DE0183E00E94DD1887B78F7E87BF8499D1
:104860007AC01092930281E00E948F0BE09147037F
:10487000F0914803818185FF0FC087E090E090931D
:104880009501809394010E94C40320E03AE040E047
:1048900050E00E94810403C080E00E94C618849BFF
:1048A0005AC080919601882391F5809193028823C4
:1048B00071F511E0109393020E948F0B80B3209149
:1048C000910A283098F4E0919B0AE20FFF27E770E5
:1048D000F070EE0FFF1FEE0FFF1FE35EF54F4082FB
:1048E0005182628273822F5F2093910A1093960106
:1048F000D0937003C0936F0384992DC0992764E00F
:10490000969587956A95E1F7182F117001C010E010
:10491000809193028130F9F4109293020E948F0BE0
:10492000109296011123B9F480916F039091700356
:10493000C81BD90B2A9778F48091910A882319F023
:1049400081508093910A809147039091480300978A
:1049500011F00E947E0B2FBEFF91EF91DF91CF915E
:10496000BF91AF919F918F917F916F915F914F9187
:104970003F912F911F910F91FF90EF90DF90CF907B
:10498000BF90AF909F908F907F906F905F904F906F
:104990003F902F900F900FBE0F901F901895789416
:1049A0001F920F920FB60F9211241F932F933F93D4
:1049B0004F935F936F937F938F939F93AF93BF9327
:1049C000EF93FF9387B78F7E87BF78941FB7F894D4
:1049D0008091570390915803A0915903B0915A03C5
:1049E0000097A105B10509F051C080919401909103
:1049F00095018530910561F18630910530F4833061
:104A0000910549F0049781F51AC087309105F1F0BE
:104A1000089751F514C0869B0FC084E090E09093F6
:104A20009501809394010E94C40327E030E040E0A8
:104A300050E00E94810418C00E94921F15C00E947D
:104A40006217882389F40E94D91F0EC080E00AC033
:104A500089E00E94421881E00E948F0B83E00E944F
:104A6000DD1887E00E94C61880918F019091900117
:104A7000019771F482E090E09093900180938F0110
:104A8000DE98DE9A80E00E940A1702C00E94E103CD
:104A9000812F99278FBFFF91EF91BF91AF919F9188
:104AA0008F917F916F915F914F913F912F911F91C6
:104AB0000F900FBE0F901F901895AF92BF92CF929C
:104AC000DF92EF920F931F935B016C010E94FA0536
:104AD000AB01BC01E1E0EE2E9601850187E00E946A
:104AE000DB051F910F91EF90DF90CF90BF90AF90BB
:104AF00008950E946A1C882351F00E94C31B609194
:104B0000450170914601882799270E945D250895E7
:104B1000AF92BF92CF92DF92EF920F931F935B0100
:104B20006C010E94FA05AB01BC01F1E0EF2E960189
:104B3000850189E00E94DB051F910F91EF90DF90C6
:104B4000CF90BF90AF9008956091490170914A0154
:104B5000882799270E94882508950F931F93809195
:104B6000450190914601892B09F44EC062E084E032
:104B70000E948D03882309F447C08091AA0A90916E
:104B8000AB0A01969093AB0A8093AA0A019761F44D
:104B90008BE238C06091490170914A0188279927BA
:104BA0000E9488251FBF30C08FB7F894182F00E0EF
:104BB00014C080919502882369F7869B81E0882341
:104BC00019F00F5F043030F78091AA0A9091AB0A78
:104BD00001969093AB0A8093AA0A8091AA0A9091B9
:104BE000AB0A8059914030F460E085E00E948D036B
:104BF0008823F9F61FBF60E085E00E948D038823BB
:104C000019F08AE20E9464021F910F910895AF92F9
:104C1000BF92CF92DF92EF920F931F935B016C01D3
:104C20000E94FA05AB01BC01A1E0EA2E96018501C4
:104C300083E00E94DB051F910F91EF90DF90CF90F2
:104C4000BF90AF9008951F93A09AA89817981F9AA5
:104C500089B78F7789BF179A1F9AA89880E0A89A7A
:104C6000A8988F5F8930D9F7179A1F9AA898A89AA1
:104C70001F98A898A89A1F9AA8988091C30190910C
:104C8000C4018F7190709093C4018093C3010E94FE
:104C9000A90C0E94B70C882329F01092800181E0B2
:104CA00090E056C08091C3019091C4018630910577
:104CB000D1F18730910538F48330910571F0059773
:104CC00009F044C018C08730910509F14E97F1F5FD
:104CD0006BE070E080E090E017C017981F9A80E0CA
:104CE0000E94C30C8091810180FD0AC06AE471E0DA
:104CF00080E090E009C017981F9A80E00E94C30CE2
:104D00006AEF70E080E090E00E9407261FC00E94DA
:104D1000DE0C182F0E94DE0C0E94F40C109381010F
:104D200086E00E9464028091E1090E94A90C0E9421
:104D3000B70C882321F081E08093820104C0809128
:104D4000E1098093810186E00E94640280E090E0A6
:104D50001F91089580912D01882319F484E090E03B
:104D6000089580918001882319F085E090E00895EE
:104D700021E02093800185E090E09093C40180932E
:104D8000C3012093010B0E94232699270895809147
:104D90002D01882319F484E090E00895809180012A
:104DA000882319F085E090E0089581E080938001E8
:104DB00083E090E09093C4018093C3011092010BB3
:104DC0000E94232699270895AF92BF92CF92DF9237
:104DD000EF920F931F93CF93DF93A091D405B091DF
:104DE000D505FD01EA5BFF4F82859927982F88271B
:104DF00023853327822B932B892B09F43DC0ED01AA
:104E00008F819927982F88272E813327822B932BE8
:104E10008F5F9F4F81F4FD01319681819927982FF3
:104E2000882729813327822B932B8F7D8983892F94
:104E30009927818303C0CD010E949006E091D4059B
:104E4000F091D505EA5BFF4F82859927182F00273F
:104E500083859927082B192B0C5E1F4F5801CC24F2
:104E6000DD240E94FA05AB01BC01B1E0EB2E9601F6
:104E700085018AE00E94DB0586E20E946402DF91E0
:104E8000CF911F910F91EF90DF90CF90BF90AF9097
:104E90000895FF920F931F93CF93DF93EC01F62EAB
:104EA0000FB7F89411270E944C06FC018FE3808312
:104EB0000FBF1092A20A1092A10A61E082E00E9444
:104EC000AA03882319F085E090E043C08091C509CA
:104ED0008F5F8093C50981508B838FB7F894992792
:104EE0002091DE058FBF222349F162E085E00E9418
:104EF000AA03882319F085E090E022C0D093D5055D
:104F0000C093D405F092B60580915B048D7F8093A9
:104F10005B04809164048D7F809364048FB7F89460
:104F200099272091DD058FBF223019F40E94E426D5
:104F300003C088E20E94640220E009C084E090E09F
:104F4000282F8FB7F89499271092DC058FBF822FF6
:104F50009927DF91CF911F910F91FF900895CF93E3
:104F6000DF93DA01422F2B3318F082E090E05EC02D
:104F7000ED018B876E83872F99278F832FB7F89446
:104F800033278091ED029091EE022FBFFD018483C3
:104F9000892F992785832FB7F894332780913F0174
:104FA000909140012FBF8887892F99278987319653
:104FB000818129819927982F882733272064386891
:104FC000822B932B8983892F99278183435F4C936D
:104FD0004D5080914201882359F010924201642F74
:104FE000CD010E9449279927282F8823A9F417C0AB
:104FF000842F99279093770380937603B093990138
:10500000A093980185E20E94640280914201882366
:1050100049F489E090E00AC08FEF80934201822F2B
:10502000992704C010924F0380E090E0DF91CF9168
:105030000895CF93DF93582FFB01823018F081E061
:1050400090E033C0C82FDD27CC0FDD1FC857DC4FE1
:1050500088819981892B19F085E090E026C07983B9
:105060006883435F40834D5080914B01823018F438
:1050700080E090E01AC0838567817727762F6627C6
:1050800026813327622B732B50934B01242FAF01C2
:105090000E94AF279927282F882329F082E0809348
:1050A0004B0119821882822F9927DF91CF910895A1
:1050B000AF92BF92CF92DF92EF920F931F935B015B
:1050C0006C010E94FA05AB01BC0111E0E12E9601D2
:1050D00085018EE00E94DB051F910F91EF90DF901C
:1050E000CF90BF90AF900895CF92DF92EF92FF9252
:1050F0000F931F936C017B010E945205DC01CB01D1
:10510000B6010E945347E80EF91E00271127C80177
:10511000B7010E9458281F910F91FF90EF90DF90E8
:10512000CF9008950F931F93CF93DF93EC01E091FD
:105130009B01FF27EE0FFF1FEA53F64F00811181FD
:10514000662329F06CE170E08CE190E033C080913F
:105150009A0183FF41C0CA5BDF4F8C81C654D040A7
:105160008823D1F58F819927982F88272E8133277F
:10517000822B932B0E940705982F8F3F71F08BE0B5
:10518000989FF0011124EE56FC4F82858F5F828735
:10519000853018F0CF010E94C60680E30E946402A9
:1051A000F801838181508383882339F067E070E0C0
:1051B00087E090E00E9474283FC00E94DD06809145
:1051C0009A018F7E80939A0167E070E087E090E01B
:1051D0000E94742840E02CC00E94DD0680919A0154
:1051E0008F7E80939A0167E070E087E090E00E94F4
:1051F00074288F819927982F88272E813327822B17
:10520000932B0E940705982F8F3F89F08BE0989F82
:10521000F0011124EE56FC4F81858F5F81878285D6
:105220008F5F8287853018F0CF010E94C60641E06B
:10523000BE01C8010E94CC13DF91CF911F910F9145
:105240000895282FCB01222319F0213071F404C0D6
:10525000642F0E94922808956759724031F480911A
:10526000A201882311F01092A2010895FF920F93DA
:105270001F93CF93DF93082FEB01F42EE82FFF2726
:10528000EE0FFF1FE857FC4F1182108280914B01F7
:105290009927019662E070E00E946747682F80932B
:1052A0004B0110E0462F5527FA01EE0FFF1FE8577C
:1052B000FC4FA081B181109799F0E62FE695E69515
:1052C000E695FF27E156F54F808199279A012770CF
:1052D000307002C0959587952A95E2F780FF0DC042
:1052E000CA01019662E070E00E946747682F1F5F65
:1052F0001230C1F610934B0119C060934B0162301C
:10530000A8F42C912D503327FD0167817727762F44
:10531000662786819927682B792BAD0183850E94AA
:10532000AF27882319F08FE20E946402002319F04E
:10533000013079F405C06F2DCE010E94922809C07A
:10534000C759D24031F48091A201882311F0109204
:10535000A201DF91CF911F910F91FF9008959B01C2
:1053600080914B01823068F4E82FFF27EE0FFF1F7A
:10537000E857FC4F608171816217730711F40E9436
:1053800036290895CF93DF93C0919801D091990168
:1053900060917603CE010E944927482F5527442368
:1053A00051F08FEF809342016091980170919901C3
:1053B0008B850E94AF29DF91CF9108952F923F9264
:1053C0004F925F926F927F928F929F92AF92BF9215
:1053D000CF92DF92EF92FF920F931F93CF93DF93C1
:1053E000CDB7DEB766970FB6F894DEBF0FBECDBF60
:1053F0005B016C016624772402E0802E04E0902E8D
:10540000F401608561FFC8C32081318142815381ED
:10541000E480F58006811781D601C501821B930BBC
:10542000A40BB50B8E159F05A007B10708F4B4C3F4
:1054300060FF03C06D7F60870AC02E0D3F1D401FB7
:10544000511FD4012D933D934D935C931397B7E077
:105450006B1609F4B8C0B615C0F0E2E06E16D9F1CB
:10546000E61538F0662061F1F1E06F1609F0A0C38F
:1054700027C024E0621609F494C0621608F467C0DD
:1054800035E0631609F094C390C04BE0641609F44C
:10549000F3C0461548F089E0681609F4B9C09AE0EF
:1054A000691609F085C3D7C0ADE06A1609F411C1C9
:1054B0006A1608F402C1BEE06B1609F079C363C333
:1054C00080E00E948B0D882311F00E9484038FE8F6
:1054D0000E948E176DC39FB7F894209184012223F8
:1054E00019F421E030E00FC080913001823019F0D2
:1054F00020E030E008C040E050E02150223010F4BD
:1055000041E050E09A01892F99278FBF222309F4A7
:105510004FC38FB7F894082F1127902F8091300137
:10552000823099F480918401813021F488E00E94D6
:10553000640209C0823049F48091F3028093300103
:1055400083E0809384010FBF33C39FBF31C3809139
:10555000C3019091C40185309105C9F08E31910548
:1055600021F0039709F024C303C01092800120C3E7
:10557000109280018091010B882309F019C30E94C9
:10558000811660E070E081E00E94EE1A11C3109273
:1055900080018091010B813009F00AC30E948116BD
:1055A00007C380E00E947A1703C38FB7F894992746
:1055B0001092020B8FBF10923A0181E080938D010F
:1055C0000E94EB15F5C28091450190914601892B0F
:1055D00009F4EEC262E084E00E948D03882309F49E
:1055E000E7C28FB7F89499272091DD058FBF22235A
:1055F00031F41092AB0A1092AA0A8CE2CAC26091EE
:10560000450170914601882799270E945D25D0C2E7
:105610008FB7F89499272091DE058FBF2223C9F018
:105620008091450190914601892B09F4C1C28FB741
:10563000F89499272091DE058FBF222309F4B8C280
:105640008FB7F89499272091DF058FBF222309F0A7
:10565000AFC289E29EC28FB7F89499272091DF05E7
:105660008FBF223009F0A4C28FB7F894992723E0A6
:105670002093DF058FBF9CC28091A001882309F48D
:1056800097C28091A101882309F492C280E30E940D
:10569000640281E30E94640281E08093E0090E9439
:1056A000FA05AB01BC0111E0E12E00E010E12EE0B3
:1056B00030E08BE00E94DB057BC28091A001882353
:1056C00009F476C28091A101882309F471C280E3B4
:1056D00060C2E0905A01F0905B01F0921F01E092ED
:1056E0001E01C0905C01D0905D01D0922101C0925A
:1056F0002001A0905E01B0905F01B0922301A092C2
:105700002201E0916001F0916101FC8BEB8BF09341
:105710002501E0932401009162011091630110932F
:1057200027010093260120916401309165013E8B91
:105730002D8B309329012093280110925B01109248
:105740005A0110925D0110925C0110925F0110925B
:105750005E0110926101109260011092630110923B
:105760006201109265011092640180912A0190916A
:105770002B019A8389838091140A9091150AA09134
:10578000160AB091170A8F87988BA98BBA8B6091F4
:10579000020170910301882777FD8095982F0E9460
:1057A00011461B012C0160910401709105018827AD
:1057B00077FD8095982F0E9411463B014C01609126
:1057C000060170910701882777FD8095982F0E9428
:1057D00011466B837C838D839E8360910801709159
:1057E0000901882777FD8095982F0E9411466F83C5
:1057F000788789879A87B801882777FD8095982FC1
:105800000E94114617FF06C020E030E040E857E450
:105810000E9412452FE632E143E85AE30E94A14676
:105820006B877C878D879E87B701882777FD80955A
:10583000982F0E941146F7FE06C020E030E040E8B5
:1058400057E40E9412452FE632E143E85AE30E94F2
:10585000A146A20191010E94A146A40193010E94C8
:10586000A1467B018C01B601882777FD8095982F92
:105870000E941146D7FE06C020E030E040E857E421
:105880000E9412452FE632E143E85AE30E94A14606
:105890002B813C814D815E810E94A1462F813885FC
:1058A00049855A850E94A1469B01AC01C801B701F8
:1058B0000E9412457B018C01B501882777FD8095F8
:1058C000982F0E941146B7FE06C020E030E040E865
:1058D00057E40E9412452FE632E143E85AE30E9462
:1058E000A146A20191010E94A146A40193010E9438
:1058F000A1469B01AC01C801B7010E9412456B0192
:105900007C010B891C89AD89BE890A0F1B1FB80158
:10591000882777FD8095982F0E94114617FF06C0B3
:1059200020E030E040E857E40E9412452FE632E1E3
:1059300043E85AE30E94A1462B813C814D815E8160
:105940000E94A1462F81388549855A850E94A1462B
:105950009B01AC01C701B6010E9412457B018C017D
:1059600020911601309117014091180150911901B1
:105970006B857C858D859E850E94A14620911A01AC
:1059800030911B0140911C0150911D010E94A146C4
:105990009B01AC01C801B7010E9412457B018C013B
:1059A00020910E0130910F01409110015091110191
:1059B0006B857C858D859E850E94A1462091120174
:1059C0003091130140911401509115010E94A1469C
:1059D0009B01AC01C801B7010E9412455B016C013B
:1059E00060910A0170910B01882777FD8095982FAF
:1059F0000E9411462FE632E143E05CE30E94A1469B
:105A00007B018C0160910C0170910D01882777FD5D
:105A10008095982F0E9411469B01AC01C801B701E7
:105A20000E94A14620E030E040E752E40E94A146F7
:105A30009B01AC01C601B5010E9412456093140A96
:105A40007093150A8093160A9093170AE981FA81D8
:105A5000E75EF34001F120E030E040E05FE30E94C8
:105A6000A1467B018C0120E030E040E05FE36F85E0
:105A7000788989899A890E94A1469B01AC01C80155
:105A8000B7010E9412456093140A7093150A80931F
:105A9000160A9093170A80917C0190917D0131E064
:105AA000823E93075CF00F2EF1ECAF2EFFE0BF2E8D
:105AB000FCE7CF2EFCE3DF2EF02D24C062EE71E078
:105AC000681B790B882777FD8095982F0E941146D7
:105AD00020E030E042E852E40E9476455B016C0130
